{
  "_format": "hh-sol-artifact-1",
  "contractName": "E_Voting",
  "sourceName": "contracts/E_Voting.sol",
  "abi": [
    {
      "inputs": [],
      "stateMutability": "nonpayable",
      "type": "constructor"
    },
    {
      "anonymous": false,
      "inputs": [],
      "name": "AllTrusteesAgreed",
      "type": "event"
    },
    {
      "anonymous": false,
      "inputs": [
        {
          "indexed": false,
          "internalType": "uint256",
          "name": "id",
          "type": "uint256"
        },
        {
          "indexed": false,
          "internalType": "string",
          "name": "name",
          "type": "string"
        }
      ],
      "name": "CandidateAdded",
      "type": "event"
    },
    {
      "anonymous": false,
      "inputs": [
        {
          "indexed": true,
          "internalType": "uint256",
          "name": "candidateId",
          "type": "uint256"
        },
        {
          "indexed": false,
          "internalType": "uint256[2]",
          "name": "C1_total",
          "type": "uint256[2]"
        },
        {
          "indexed": false,
          "internalType": "uint256[2]",
          "name": "C2_total",
          "type": "uint256[2]"
        }
      ],
      "name": "CipherTotalPublished",
      "type": "event"
    },
    {
      "anonymous": false,
      "inputs": [
        {
          "indexed": false,
          "internalType": "string",
          "name": "electionId",
          "type": "string"
        },
        {
          "indexed": false,
          "internalType": "string",
          "name": "name",
          "type": "string"
        }
      ],
      "name": "ElectionCreated",
      "type": "event"
    },
    {
      "anonymous": false,
      "inputs": [],
      "name": "ElectionEnded",
      "type": "event"
    },
    {
      "anonymous": false,
      "inputs": [
        {
          "indexed": false,
          "internalType": "bytes",
          "name": "epk",
          "type": "bytes"
        }
      ],
      "name": "EpkPublished",
      "type": "event"
    },
    {
      "anonymous": false,
      "inputs": [
        {
          "indexed": false,
          "internalType": "bytes32",
          "name": "hashAllOnChain",
          "type": "bytes32"
        }
      ],
      "name": "HashAllOnChainPublished",
      "type": "event"
    },
    {
      "anonymous": false,
      "inputs": [
        {
          "indexed": false,
          "internalType": "bytes32",
          "name": "root",
          "type": "bytes32"
        }
      ],
      "name": "MerkleRootUpdated",
      "type": "event"
    },
    {
      "anonymous": false,
      "inputs": [
        {
          "indexed": false,
          "internalType": "address",
          "name": "trustee",
          "type": "address"
        }
      ],
      "name": "PartialDecryptionFailed",
      "type": "event"
    },
    {
      "anonymous": false,
      "inputs": [
        {
          "indexed": true,
          "internalType": "address",
          "name": "trustee",
          "type": "address"
        },
        {
          "indexed": false,
          "internalType": "uint256[2][]",
          "name": "D_points",
          "type": "uint256[2][]"
        }
      ],
      "name": "PartialDecryptionSubmitted",
      "type": "event"
    },
    {
      "anonymous": false,
      "inputs": [
        {
          "indexed": true,
          "internalType": "address",
          "name": "trustee",
          "type": "address"
        }
      ],
      "name": "PartialDecryptionVerified",
      "type": "event"
    },
    {
      "anonymous": false,
      "inputs": [
        {
          "indexed": true,
          "internalType": "address",
          "name": "trustee",
          "type": "address"
        }
      ],
      "name": "TrusteeRegistered",
      "type": "event"
    },
    {
      "anonymous": false,
      "inputs": [
        {
          "indexed": true,
          "internalType": "bytes32",
          "name": "nullifier",
          "type": "bytes32"
        },
        {
          "indexed": true,
          "internalType": "bytes32",
          "name": "hashCipher",
          "type": "bytes32"
        },
        {
          "indexed": false,
          "internalType": "string",
          "name": "cid",
          "type": "string"
        }
      ],
      "name": "VotePublished",
      "type": "event"
    },
    {
      "inputs": [
        {
          "internalType": "string",
          "name": "_name",
          "type": "string"
        }
      ],
      "name": "addCandidate",
      "outputs": [],
      "stateMutability": "nonpayable",
      "type": "function"
    },
    {
      "inputs": [],
      "name": "admin",
      "outputs": [
        {
          "internalType": "address",
          "name": "",
          "type": "address"
        }
      ],
      "stateMutability": "view",
      "type": "function"
    },
    {
      "inputs": [],
      "name": "aggregator",
      "outputs": [
        {
          "internalType": "address",
          "name": "",
          "type": "address"
        }
      ],
      "stateMutability": "view",
      "type": "function"
    },
    {
      "inputs": [
        {
          "internalType": "uint256",
          "name": "",
          "type": "uint256"
        }
      ],
      "name": "candidates",
      "outputs": [
        {
          "internalType": "uint256",
          "name": "id",
          "type": "uint256"
        },
        {
          "internalType": "string",
          "name": "name",
          "type": "string"
        },
        {
          "internalType": "uint256",
          "name": "voteCount",
          "type": "uint256"
        }
      ],
      "stateMutability": "view",
      "type": "function"
    },
    {
      "inputs": [],
      "name": "endElection",
      "outputs": [],
      "stateMutability": "nonpayable",
      "type": "function"
    },
    {
      "inputs": [],
      "name": "epk",
      "outputs": [
        {
          "internalType": "bytes",
          "name": "",
          "type": "bytes"
        }
      ],
      "stateMutability": "view",
      "type": "function"
    },
    {
      "inputs": [],
      "name": "getCandidateCount",
      "outputs": [
        {
          "internalType": "uint256",
          "name": "",
          "type": "uint256"
        }
      ],
      "stateMutability": "view",
      "type": "function"
    },
    {
      "inputs": [
        {
          "internalType": "address",
          "name": "",
          "type": "address"
        }
      ],
      "name": "hasPublished",
      "outputs": [
        {
          "internalType": "bool",
          "name": "",
          "type": "bool"
        }
      ],
      "stateMutability": "view",
      "type": "function"
    },
    {
      "inputs": [],
      "name": "hashAllOnChain",
      "outputs": [
        {
          "internalType": "bytes32",
          "name": "",
          "type": "bytes32"
        }
      ],
      "stateMutability": "view",
      "type": "function"
    },
    {
      "inputs": [],
      "name": "info",
      "outputs": [
        {
          "internalType": "string",
          "name": "electionId",
          "type": "string"
        },
        {
          "internalType": "string",
          "name": "name",
          "type": "string"
        },
        {
          "internalType": "uint256",
          "name": "startDate",
          "type": "uint256"
        },
        {
          "internalType": "uint256",
          "name": "endDate",
          "type": "uint256"
        },
        {
          "internalType": "enum E_Voting.ElectionStatus",
          "name": "status",
          "type": "uint8"
        },
        {
          "internalType": "bytes32",
          "name": "merkleRoot",
          "type": "bytes32"
        }
      ],
      "stateMutability": "view",
      "type": "function"
    },
    {
      "inputs": [
        {
          "internalType": "bytes32",
          "name": "",
          "type": "bytes32"
        }
      ],
      "name": "isNullifierUsed",
      "outputs": [
        {
          "internalType": "bool",
          "name": "",
          "type": "bool"
        }
      ],
      "stateMutability": "view",
      "type": "function"
    },
    {
      "inputs": [
        {
          "internalType": "address",
          "name": "",
          "type": "address"
        }
      ],
      "name": "isTrustee",
      "outputs": [
        {
          "internalType": "bool",
          "name": "",
          "type": "bool"
        }
      ],
      "stateMutability": "view",
      "type": "function"
    },
    {
      "inputs": [
        {
          "internalType": "address",
          "name": "",
          "type": "address"
        }
      ],
      "name": "lastVerifyPassed",
      "outputs": [
        {
          "internalType": "bool",
          "name": "",
          "type": "bool"
        }
      ],
      "stateMutability": "view",
      "type": "function"
    },
    {
      "inputs": [],
      "name": "minRequired",
      "outputs": [
        {
          "internalType": "uint256",
          "name": "",
          "type": "uint256"
        }
      ],
      "stateMutability": "view",
      "type": "function"
    },
    {
      "inputs": [
        {
          "internalType": "uint256[2][]",
          "name": "C1_list",
          "type": "uint256[2][]"
        },
        {
          "internalType": "uint256[2][]",
          "name": "C2_list",
          "type": "uint256[2][]"
        }
      ],
      "name": "publishAllCipherTotals",
      "outputs": [],
      "stateMutability": "nonpayable",
      "type": "function"
    },
    {
      "inputs": [
        {
          "internalType": "bytes",
          "name": "_epk",
          "type": "bytes"
        }
      ],
      "name": "publishEpk",
      "outputs": [],
      "stateMutability": "nonpayable",
      "type": "function"
    },
    {
      "inputs": [
        {
          "internalType": "bytes32",
          "name": "_hashAllOnChain",
          "type": "bytes32"
        }
      ],
      "name": "publishHashAllOnChain",
      "outputs": [],
      "stateMutability": "nonpayable",
      "type": "function"
    },
    {
      "inputs": [
        {
          "internalType": "uint256[2][]",
          "name": "D_points",
          "type": "uint256[2][]"
        }
      ],
      "name": "publishPartialDecryption",
      "outputs": [],
      "stateMutability": "nonpayable",
      "type": "function"
    },
    {
      "inputs": [
        {
          "internalType": "address[3]",
          "name": "_trustees",
          "type": "address[3]"
        }
      ],
      "name": "registerTrustees",
      "outputs": [],
      "stateMutability": "nonpayable",
      "type": "function"
    },
    {
      "inputs": [
        {
          "internalType": "address",
          "name": "_aggregator",
          "type": "address"
        }
      ],
      "name": "setAggregator",
      "outputs": [],
      "stateMutability": "nonpayable",
      "type": "function"
    },
    {
      "inputs": [
        {
          "internalType": "string",
          "name": "_id",
          "type": "string"
        },
        {
          "internalType": "string",
          "name": "_name",
          "type": "string"
        },
        {
          "internalType": "uint256",
          "name": "_start",
          "type": "uint256"
        },
        {
          "internalType": "uint256",
          "name": "_end",
          "type": "uint256"
        }
      ],
      "name": "setElectionInfo",
      "outputs": [],
      "stateMutability": "nonpayable",
      "type": "function"
    },
    {
      "inputs": [
        {
          "internalType": "bytes32",
          "name": "_root",
          "type": "bytes32"
        }
      ],
      "name": "setMerkleRoot",
      "outputs": [],
      "stateMutability": "nonpayable",
      "type": "function"
    },
    {
      "inputs": [
        {
          "internalType": "bytes32",
          "name": "_nullifier",
          "type": "bytes32"
        },
        {
          "internalType": "bytes32",
          "name": "_hashCipher",
          "type": "bytes32"
        },
        {
          "internalType": "string",
          "name": "_cid",
          "type": "string"
        }
      ],
      "name": "submitVote",
      "outputs": [],
      "stateMutability": "nonpayable",
      "type": "function"
    },
    {
      "inputs": [],
      "name": "thresholdCount",
      "outputs": [
        {
          "internalType": "uint256",
          "name": "",
          "type": "uint256"
        }
      ],
      "stateMutability": "view",
      "type": "function"
    },
    {
      "inputs": [
        {
          "internalType": "address",
          "name": "",
          "type": "address"
        }
      ],
      "name": "trusteeID",
      "outputs": [
        {
          "internalType": "uint256",
          "name": "",
          "type": "uint256"
        }
      ],
      "stateMutability": "view",
      "type": "function"
    },
    {
      "inputs": [
        {
          "internalType": "uint256[2]",
          "name": "pA",
          "type": "uint256[2]"
        },
        {
          "internalType": "uint256[2][2]",
          "name": "pB",
          "type": "uint256[2][2]"
        },
        {
          "internalType": "uint256[2]",
          "name": "pC",
          "type": "uint256[2]"
        },
        {
          "internalType": "uint256[1]",
          "name": "pubSignals",
          "type": "uint256[1]"
        }
      ],
      "name": "verifyPartialProof",
      "outputs": [
        {
          "internalType": "bool",
          "name": "",
          "type": "bool"
        }
      ],
      "stateMutability": "nonpayable",
      "type": "function"
    },
    {
      "inputs": [
        {
          "internalType": "uint256[2]",
          "name": "_pA",
          "type": "uint256[2]"
        },
        {
          "internalType": "uint256[2][2]",
          "name": "_pB",
          "type": "uint256[2][2]"
        },
        {
          "internalType": "uint256[2]",
          "name": "_pC",
          "type": "uint256[2]"
        },
        {
          "internalType": "uint256[1]",
          "name": "_pubSignals",
          "type": "uint256[1]"
        }
      ],
      "name": "verifyProof",
      "outputs": [
        {
          "internalType": "bool",
          "name": "",
          "type": "bool"
        }
      ],
      "stateMutability": "view",
      "type": "function"
    }
  ],
  "bytecode": "0x608060405234801561001057600080fd5b50336000806101000a81548173ffffffffffffffffffffffffffffffffffffffff021916908373ffffffffffffffffffffffffffffffffffffffff160217905550613b3c806100606000396000f3fe608060405234801561001057600080fd5b50600436106101a95760003560e01c8063370158ea116100f9578063ab989f5511610097578063d8617a6711610071578063d8617a67146104c1578063e4475213146104dd578063f851a4401461050d578063f9120af61461052b576101a9565b8063ab989f5514610457578063baacc5bd14610475578063c784cd1714610491576101a9565b806359f78468116100d357806359f78468146103e35780636604bf03146103ed5780637cb647591461040b578063872d9e6e14610427576101a9565b8063370158ea1461037457806343753b4d14610397578063462e91ec146103c7576101a9565b806322dc7b4c1161016657806329a6e55d1161014057806329a6e55d146102d857806330a56347146103085780633477ee2e14610326578063368f851314610358576101a9565b806322dc7b4c1461026c578063245a7bfc1461029c578063251060d6146102ba576101a9565b8063052497c6146101ae57806313e26d58146101ca57806315aaa880146101e8578063168e917a146102185780631bdf06f71461023457806322c04fa114610250575b600080fd5b6101c860048036038101906101c39190612337565b610547565b005b6101d26106d6565b6040516101df91906123e5565b60405180910390f35b61020260048036038101906101fd919061245e565b6106db565b60405161020f91906123e5565b60405180910390f35b610232600480360381019061022d91906124c1565b6106f3565b005b61024e6004803603810190610249919061254e565b610809565b005b61026a60048036038101906102659190612625565b61097f565b005b610286600480360381019061028191906124c1565b610ac6565b60405161029391906126b4565b60405180910390f35b6102a4610ae6565b6040516102b191906126de565b60405180910390f35b6102c2610b0c565b6040516102cf91906123e5565b60405180910390f35b6102f260048036038101906102ed919061275f565b610b12565b6040516102ff91906126b4565b60405180910390f35b610310610dae565b60405161031d91906123e5565b60405180910390f35b610340600480360381019061033b91906127c8565b610dbb565b60405161034f93929190612874565b60405180910390f35b610372600480360381019061036d91906128d4565b610e7d565b005b61037c6110cd565b60405161038e96959493929190612987565b60405180910390f35b6103b160048036038101906103ac919061275f565b611214565b6040516103be91906126b4565b60405180910390f35b6103e160048036038101906103dc91906129f6565b611670565b005b6103eb6117c3565b005b6103f5611926565b6040516104029190612a3f565b60405180910390f35b610425600480360381019061042091906124c1565b61192c565b005b610441600480360381019061043c919061245e565b6119fe565b60405161044e91906126b4565b60405180910390f35b61045f611a1e565b60405161046c9190612aaf565b60405180910390f35b61048f600480360381019061048a9190612b27565b611aac565b005b6104ab60048036038101906104a6919061245e565b611b89565b6040516104b891906126b4565b60405180910390f35b6104db60048036038101906104d69190612b74565b611ba9565b005b6104f760048036038101906104f2919061245e565b611ee1565b60405161050491906126b4565b60405180910390f35b610515611f01565b60405161052291906126de565b60405180910390f35b6105456004803603810190610540919061245e565b611f25565b005b60008054906101000a900473ffffffffffffffffffffffffffffffffffffffff1673ffffffffffffffffffffffffffffffffffffffff163373ffffffffffffffffffffffffffffffffffffffff16146105d5576040517f08c379a00000000000000000000000000000000000000000000000000000000081526004016105cc90612c0d565b60405180910390fd5b6040518060c001604052808581526020018481526020018381526020018281526020016001600281111561060c5761060b612901565b5b81526020016000801b8152506001600082015181600001908161062f9190612e39565b5060208201518160010190816106459190612e39565b50604082015181600201556060820151816003015560808201518160040160006101000a81548160ff0219169083600281111561068557610684612901565b5b021790555060a082015181600501559050507f1594903932ed8f9b9f2f2bbc15a18c132591e2c4d3730ba56705aa661662f49c84846040516106c8929190612f0b565b60405180910390a150505050565b600281565b600c6020528060005260406000206000915090505481565b60008054906101000a900473ffffffffffffffffffffffffffffffffffffffff1673ffffffffffffffffffffffffffffffffffffffff163373ffffffffffffffffffffffffffffffffffffffff1614610781576040517f08c379a000000000000000000000000000000000000000000000000000000000815260040161077890612c0d565b60405180910390fd5b6000801b600a54146107c8576040517f08c379a00000000000000000000000000000000000000000000000000000000081526004016107bf90612f8e565b60405180910390fd5b80600a819055507f441c2ef1cd25577b68ad08339ad40de8de2cb75d820352e6ad04872e67fb51cd816040516107fe9190612a3f565b60405180910390a150565b601060009054906101000a900473ffffffffffffffffffffffffffffffffffffffff1673ffffffffffffffffffffffffffffffffffffffff163373ffffffffffffffffffffffffffffffffffffffff1614610899576040517f08c379a000000000000000000000000000000000000000000000000000000000815260040161089090612ffa565b60405180910390fd5b8181905084849050146108e1576040517f08c379a00000000000000000000000000000000000000000000000000000000081526004016108d890613066565b60405180910390fd5b60005b84849050811015610978576001816108fc91906130b5565b7f3f43c5f7b17d028526089f9ba4ba863ef2a26802b48f4f85012a3ec93d4bbcd98686848181106109305761092f6130e9565b5b905060400201858585818110610949576109486130e9565b5b90506040020160405161095d929190613131565b60405180910390a280806109709061315a565b9150506108e4565b5050505050565b6001600281111561099357610992612901565b5b600160040160009054906101000a900460ff1660028111156109b8576109b7612901565b5b146109f8576040517f08c379a00000000000000000000000000000000000000000000000000000000081526004016109ef906131ee565b60405180910390fd5b6009600085815260200190815260200160002060009054906101000a900460ff1615610a59576040517f08c379a0000000000000000000000000000000000000000000000000000000008152600401610a509061325a565b60405180910390fd5b60016009600086815260200190815260200160002060006101000a81548160ff02191690831515021790555082847fdecfef833a228bba67aef2aa54c984b21b5713a8e4a58ea1e42db46daf20b8d48484604051610ab89291906132a7565b60405180910390a350505050565b60096020528060005260406000206000915054906101000a900460ff1681565b601060009054906101000a900473ffffffffffffffffffffffffffffffffffffffff1681565b600d5481565b6000600b60003373ffffffffffffffffffffffffffffffffffffffff1673ffffffffffffffffffffffffffffffffffffffff16815260200190815260200160002060009054906101000a900460ff16610ba0576040517f08c379a0000000000000000000000000000000000000000000000000000000008152600401610b9790613317565b60405180910390fd5b6000610cc2866002806020026040519081016040528092919082600260200280828437600081840152601f19601f82011690508083019250505050505086600280602002604051908101604052809291906000905b82821015610c49578382604002016002806020026040519081016040528092919082600260200280828437600081840152601f19601f82011690508083019250505050505081526020019060010190610bf5565b50505050866002806020026040519081016040528092919082600260200280828437600081840152601f19601f820116905080830192505050505050866001806020026040519081016040528092919082600160200280828437600081840152601f19601f820116905080830192505050505050612066565b90508015610d6a576001600e60003373ffffffffffffffffffffffffffffffffffffffff1673ffffffffffffffffffffffffffffffffffffffff16815260200190815260200160002060006101000a81548160ff0219169083151502179055503373ffffffffffffffffffffffffffffffffffffffff167f461f94abfffacf370cd3915fe79cceea6ccd2356cae317fbb3f7f3bae81cfea060405160405180910390a2610da2565b7f927295f72e08d9a5955fd9b158ac28cc0a9bc6c057c7171bbca9161241849ea733604051610d9991906126de565b60405180910390a15b80915050949350505050565b6000600780549050905090565b60078181548110610dcb57600080fd5b9060005260206000209060030201600091509050806000015490806001018054610df490612c5c565b80601f0160208091040260200160405190810160405280929190818152602001828054610e2090612c5c565b8015610e6d5780601f10610e4257610100808354040283529160200191610e6d565b820191906000526020600020905b815481529060010190602001808311610e5057829003601f168201915b5050505050908060020154905083565b60008054906101000a900473ffffffffffffffffffffffffffffffffffffffff1673ffffffffffffffffffffffffffffffffffffffff163373ffffffffffffffffffffffffffffffffffffffff1614610f0b576040517f08c379a0000000000000000000000000000000000000000000000000000000008152600401610f0290612c0d565b60405180910390fd5b6000600d5414610f50576040517f08c379a0000000000000000000000000000000000000000000000000000000008152600401610f4790613383565b60405180910390fd5b60005b60038110156110c9576001600b6000848460038110610f7557610f746130e9565b5b602002016020810190610f88919061245e565b73ffffffffffffffffffffffffffffffffffffffff1673ffffffffffffffffffffffffffffffffffffffff16815260200190815260200160002060006101000a81548160ff021916908315150217905550600181610fe691906130b5565b600c6000848460038110610ffd57610ffc6130e9565b5b602002016020810190611010919061245e565b73ffffffffffffffffffffffffffffffffffffffff1673ffffffffffffffffffffffffffffffffffffffff16815260200190815260200160002081905550818160038110611061576110606130e9565b5b602002016020810190611074919061245e565b73ffffffffffffffffffffffffffffffffffffffff167f85778b4fc65f26951d8cf0de370d55669440118927711dbc86de5ab3904def3160405160405180910390a280806110c19061315a565b915050610f53565b5050565b60018060000180546110de90612c5c565b80601f016020809104026020016040519081016040528092919081815260200182805461110a90612c5c565b80156111575780601f1061112c57610100808354040283529160200191611157565b820191906000526020600020905b81548152906001019060200180831161113a57829003601f168201915b50505050509080600101805461116c90612c5c565b80601f016020809104026020016040519081016040528092919081815260200182805461119890612c5c565b80156111e55780601f106111ba576101008083540402835291602001916111e5565b820191906000526020600020905b8154815290600101906020018083116111c857829003601f168201915b5050505050908060020154908060030154908060040160009054906101000a900460ff16908060050154905086565b6000611641565b7f30644e72e131a029b85045b68181585d2833e84879b9709143e1f593f0000001811061124c576000805260206000f35b50565b600060405183815284602082015285604082015260408160608360076107d05a03fa915081611282576000805260206000f35b825160408201526020830151606082015260408360808360066107d05a03fa9150816112b2576000805260206000f35b505050505050565b600060808601600087017f2d2bbd05032830e38fbe5b92d97d5308b19d59e04f5a9e3e0b12bfe5781cc41481527f0b6b27a36c650fe495f8e8a74b606e629fbb57ca954fe920cf9793f093fed3f6602082015261135d60008801357f1edd51c662e1c077b99b381d14dbf3a0e0883bd1365f716f15a7fde476d6e1357f0612ebacc2a0f75422c59901603b7063c5862071cb50f9361dbf16b239f9b8378461124f565b833582527f30644e72e131a029b85045b68181585d97816a916871ca8d3c208c16d87cfd4760208501357f30644e72e131a029b85045b68181585d97816a916871ca8d3c208c16d87cfd4703066020830152843560408301526020850135606083015260408501356080830152606085013560a08301527f0fa97dbe05c01604f78e309ff166a3d1ca5a169ad7e4c273978b2d12951b3aa860c08301527f1ce3d36ac75c22ca880a3589453dd56d74ebcd3dc0d02bbd68b34d5d7950ca2960e08301527f08854137860062e4ae212836201a5afcfe3f37123650b07b4ccbbe81528d77b16101008301527f061483df5d4504f9f4c4d0db42fc7ff28dca2e621cedbddef0fc1517ba3608686101208301527f234436eb026880fecd883256f20c9bf04145e8d2851134db03fb0750a0eaae3a6101408301527f0477051796d060fccce2dcb65437ad24c044e0ead79119f3eb26f1ac3ce97b7b610160830152600088015161018083015260206000018801516101a08301527f198e9393920d483a7260bfb731fb5d25f1aa493335a9e71297e485b7aef312c26101c08301527f1800deef121f1e76426a00665e5c4479674322d4f75edadd46debd5cd992f6ed6101e08301527f090689d0585ff075ec9e99ad690c3395bc4b313370b38ef355acdadcd122975b6102008301527f12c85ea5db8c6deb4aab71808dcb408fe3d1e7690c43d37b4ce6cc0166fa7daa610220830152853561024083015260208601356102608301527f198e9393920d483a7260bfb731fb5d25f1aa493335a9e71297e485b7aef312c26102808301527f1800deef121f1e76426a00665e5c4479674322d4f75edadd46debd5cd992f6ed6102a08301527f090689d0585ff075ec9e99ad690c3395bc4b313370b38ef355acdadcd122975b6102c08301527f12c85ea5db8c6deb4aab71808dcb408fe3d1e7690c43d37b4ce6cc0166fa7daa6102e08301526020826103008460086107d05a03fa82518116935050505095945050505050565b6040516103808101604052611659600084013561121b565b611666818486888a6112ba565b8060005260206000f35b60008054906101000a900473ffffffffffffffffffffffffffffffffffffffff1673ffffffffffffffffffffffffffffffffffffffff163373ffffffffffffffffffffffffffffffffffffffff16146116fe576040517f08c379a00000000000000000000000000000000000000000000000000000000081526004016116f590612c0d565b60405180910390fd5b60076040518060600160405280600160078054905061171d91906130b5565b8152602001838152602001600081525090806001815401808255809150506001900390600052602060002090600302016000909190919091506000820151816000015560208201518160010190816117759190612e39565b506040820151816002015550507fe83b2a43e7e82d975c8a0a6d2f045153c869e111136a34d1889ab7b598e396a3600780549050826040516117b89291906133a3565b60405180910390a150565b60008054906101000a900473ffffffffffffffffffffffffffffffffffffffff1673ffffffffffffffffffffffffffffffffffffffff163373ffffffffffffffffffffffffffffffffffffffff1614611851576040517f08c379a000000000000000000000000000000000000000000000000000000000815260040161184890612c0d565b60405180910390fd5b6001600281111561186557611864612901565b5b600160040160009054906101000a900460ff16600281111561188a57611889612901565b5b146118ca576040517f08c379a00000000000000000000000000000000000000000000000000000000081526004016118c19061341f565b60405180910390fd5b6002600160040160006101000a81548160ff021916908360028111156118f3576118f2612901565b5b02179055507f66ec723071e4bb646f7b35d31bc2dee8510979bd8c180edd0690d4f5e802f1e460405160405180910390a1565b600a5481565b60008054906101000a900473ffffffffffffffffffffffffffffffffffffffff1673ffffffffffffffffffffffffffffffffffffffff163373ffffffffffffffffffffffffffffffffffffffff16146119ba576040517f08c379a00000000000000000000000000000000000000000000000000000000081526004016119b190612c0d565b60405180910390fd5b806001600501819055507f90004c04698bc3322499a575ed3752dd4abf33e0a7294c06a787a0fe01bea941816040516119f39190612a3f565b60405180910390a150565b600f6020528060005260406000206000915054906101000a900460ff1681565b60088054611a2b90612c5c565b80601f0160208091040260200160405190810160405280929190818152602001828054611a5790612c5c565b8015611aa45780601f10611a7957610100808354040283529160200191611aa4565b820191906000526020600020905b815481529060010190602001808311611a8757829003601f168201915b505050505081565b60008054906101000a900473ffffffffffffffffffffffffffffffffffffffff1673ffffffffffffffffffffffffffffffffffffffff163373ffffffffffffffffffffffffffffffffffffffff1614611b3a576040517f08c379a0000000000000000000000000000000000000000000000000000000008152600401611b3190612c0d565b60405180910390fd5b818160089182611b4b9291906134a5565b507fcbe11c4a798e6399d2bdc5014d77dd62a510f9a2d3e8d17fa579793168e7b2198282604051611b7d9291906135a2565b60405180910390a15050565b600b6020528060005260406000206000915054906101000a900460ff1681565b600b60003373ffffffffffffffffffffffffffffffffffffffff1673ffffffffffffffffffffffffffffffffffffffff16815260200190815260200160002060009054906101000a900460ff16611c35576040517f08c379a0000000000000000000000000000000000000000000000000000000008152600401611c2c90613317565b60405180910390fd5b600e60003373ffffffffffffffffffffffffffffffffffffffff1673ffffffffffffffffffffffffffffffffffffffff16815260200190815260200160002060009054906101000a900460ff16611cc1576040517f08c379a0000000000000000000000000000000000000000000000000000000008152600401611cb890613612565b60405180910390fd5b600f60003373ffffffffffffffffffffffffffffffffffffffff1673ffffffffffffffffffffffffffffffffffffffff16815260200190815260200160002060009054906101000a900460ff1615611d4e576040517f08c379a0000000000000000000000000000000000000000000000000000000008152600401611d4590612f8e565b60405180910390fd5b60008282905011611d94576040517f08c379a0000000000000000000000000000000000000000000000000000000008152600401611d8b9061367e565b60405180910390fd5b6001600f60003373ffffffffffffffffffffffffffffffffffffffff1673ffffffffffffffffffffffffffffffffffffffff16815260200190815260200160002060006101000a81548160ff0219169083151502179055506000600e60003373ffffffffffffffffffffffffffffffffffffffff1673ffffffffffffffffffffffffffffffffffffffff16815260200190815260200160002060006101000a81548160ff021916908315150217905550600d600081548092919060010191905055503373ffffffffffffffffffffffffffffffffffffffff167f84ed87109962c02c163a4cb962b99e44550d6d3e65b0539743f436be6f38a41b8383604051611e9e929190613756565b60405180910390a26002600d5410611edd577fb5c83c1854b3926d397eff3a576d47f9d1ef613af9b5d8e34fb1f6641428230660405160405180910390a15b5050565b600e6020528060005260406000206000915054906101000a900460ff1681565b60008054906101000a900473ffffffffffffffffffffffffffffffffffffffff1681565b60008054906101000a900473ffffffffffffffffffffffffffffffffffffffff1673ffffffffffffffffffffffffffffffffffffffff163373ffffffffffffffffffffffffffffffffffffffff1614611fb3576040517f08c379a0000000000000000000000000000000000000000000000000000000008152600401611faa90612c0d565b60405180910390fd5b600073ffffffffffffffffffffffffffffffffffffffff168173ffffffffffffffffffffffffffffffffffffffff1603612022576040517f08c379a0000000000000000000000000000000000000000000000000000000008152600401612019906137c6565b60405180910390fd5b80601060006101000a81548173ffffffffffffffffffffffffffffffffffffffff021916908373ffffffffffffffffffffffffffffffffffffffff16021790555050565b60008060003073ffffffffffffffffffffffffffffffffffffffff16878787876040516024016120999493929190613a13565b6040516020818303038152906040527f43753b4d000000000000000000000000000000000000000000000000000000007bffffffffffffffffffffffffffffffffffffffffffffffffffffffff19166020820180517bffffffffffffffffffffffffffffffffffffffffffffffffffffffff83818316178352505050506040516121239190613a96565b600060405180830381855afa9150503d806000811461215e576040519150601f19603f3d011682016040523d82523d6000602084013e612163565b606091505b5091509150811580612176575060208151105b156121865760009250505061219f565b8080602001905181019061219a9190613ad9565b925050505b949350505050565b6000604051905090565b600080fd5b600080fd5b600080fd5b600080fd5b6000601f19601f8301169050919050565b7f4e487b7100000000000000000000000000000000000000000000000000000000600052604160045260246000fd5b61220e826121c5565b810181811067ffffffffffffffff8211171561222d5761222c6121d6565b5b80604052505050565b60006122406121a7565b905061224c8282612205565b919050565b600067ffffffffffffffff82111561226c5761226b6121d6565b5b612275826121c5565b9050602081019050919050565b82818337600083830152505050565b60006122a461229f84612251565b612236565b9050828152602081018484840111156122c0576122bf6121c0565b5b6122cb848285612282565b509392505050565b600082601f8301126122e8576122e76121bb565b5b81356122f8848260208601612291565b91505092915050565b6000819050919050565b61231481612301565b811461231f57600080fd5b50565b6000813590506123318161230b565b92915050565b60008060008060808587031215612351576123506121b1565b5b600085013567ffffffffffffffff81111561236f5761236e6121b6565b5b61237b878288016122d3565b945050602085013567ffffffffffffffff81111561239c5761239b6121b6565b5b6123a8878288016122d3565b93505060406123b987828801612322565b92505060606123ca87828801612322565b91505092959194509250565b6123df81612301565b82525050565b60006020820190506123fa60008301846123d6565b92915050565b600073ffffffffffffffffffffffffffffffffffffffff82169050919050565b600061242b82612400565b9050919050565b61243b81612420565b811461244657600080fd5b50565b60008135905061245881612432565b92915050565b600060208284031215612474576124736121b1565b5b600061248284828501612449565b91505092915050565b6000819050919050565b61249e8161248b565b81146124a957600080fd5b50565b6000813590506124bb81612495565b92915050565b6000602082840312156124d7576124d66121b1565b5b60006124e5848285016124ac565b91505092915050565b600080fd5b600080fd5b60008083601f84011261250e5761250d6121bb565b5b8235905067ffffffffffffffff81111561252b5761252a6124ee565b5b602083019150836040820283011115612547576125466124f3565b5b9250929050565b60008060008060408587031215612568576125676121b1565b5b600085013567ffffffffffffffff811115612586576125856121b6565b5b612592878288016124f8565b9450945050602085013567ffffffffffffffff8111156125b5576125b46121b6565b5b6125c1878288016124f8565b925092505092959194509250565b60008083601f8401126125e5576125e46121bb565b5b8235905067ffffffffffffffff811115612602576126016124ee565b5b60208301915083600182028301111561261e5761261d6124f3565b5b9250929050565b6000806000806060858703121561263f5761263e6121b1565b5b600061264d878288016124ac565b945050602061265e878288016124ac565b935050604085013567ffffffffffffffff81111561267f5761267e6121b6565b5b61268b878288016125cf565b925092505092959194509250565b60008115159050919050565b6126ae81612699565b82525050565b60006020820190506126c960008301846126a5565b92915050565b6126d881612420565b82525050565b60006020820190506126f360008301846126cf565b92915050565b600081905082602060020282011115612715576127146124f3565b5b92915050565b600081905082604060020282011115612737576127366124f3565b5b92915050565b600081905082602060010282011115612759576127586124f3565b5b92915050565b600080600080610120858703121561277a576127796121b1565b5b6000612788878288016126f9565b94505060406127998782880161271b565b93505060c06127aa878288016126f9565b9250506101006127bc8782880161273d565b91505092959194509250565b6000602082840312156127de576127dd6121b1565b5b60006127ec84828501612322565b91505092915050565b600081519050919050565b600082825260208201905092915050565b60005b8381101561282f578082015181840152602081019050612814565b60008484015250505050565b6000612846826127f5565b6128508185612800565b9350612860818560208601612811565b612869816121c5565b840191505092915050565b600060608201905061288960008301866123d6565b818103602083015261289b818561283b565b90506128aa60408301846123d6565b949350505050565b6000819050826020600302820111156128ce576128cd6124f3565b5b92915050565b6000606082840312156128ea576128e96121b1565b5b60006128f8848285016128b2565b91505092915050565b7f4e487b7100000000000000000000000000000000000000000000000000000000600052602160045260246000fd5b6003811061294157612940612901565b5b50565b600081905061295282612930565b919050565b600061296282612944565b9050919050565b61297281612957565b82525050565b6129818161248b565b82525050565b600060c08201905081810360008301526129a1818961283b565b905081810360208301526129b5818861283b565b90506129c460408301876123d6565b6129d160608301866123d6565b6129de6080830185612969565b6129eb60a0830184612978565b979650505050505050565b600060208284031215612a0c57612a0b6121b1565b5b600082013567ffffffffffffffff811115612a2a57612a296121b6565b5b612a36848285016122d3565b91505092915050565b6000602082019050612a546000830184612978565b92915050565b600081519050919050565b600082825260208201905092915050565b6000612a8182612a5a565b612a8b8185612a65565b9350612a9b818560208601612811565b612aa4816121c5565b840191505092915050565b60006020820190508181036000830152612ac98184612a76565b905092915050565b60008083601f840112612ae757612ae66121bb565b5b8235905067ffffffffffffffff811115612b0457612b036124ee565b5b602083019150836001820283011115612b2057612b1f6124f3565b5b9250929050565b60008060208385031215612b3e57612b3d6121b1565b5b600083013567ffffffffffffffff811115612b5c57612b5b6121b6565b5b612b6885828601612ad1565b92509250509250929050565b60008060208385031215612b8b57612b8a6121b1565b5b600083013567ffffffffffffffff811115612ba957612ba86121b6565b5b612bb5858286016124f8565b92509250509250929050565b7f4e6f7420617574686f72697a6564000000000000000000000000000000000000600082015250565b6000612bf7600e83612800565b9150612c0282612bc1565b602082019050919050565b60006020820190508181036000830152612c2681612bea565b9050919050565b7f4e487b7100000000000000000000000000000000000000000000000000000000600052602260045260246000fd5b60006002820490506001821680612c7457607f821691505b602082108103612c8757612c86612c2d565b5b50919050565b60008190508160005260206000209050919050565b60006020601f8301049050919050565b600082821b905092915050565b600060088302612cef7fffffffffffffffffffffffffffffffffffffffffffffffffffffffffffffffff82612cb2565b612cf98683612cb2565b95508019841693508086168417925050509392505050565b6000819050919050565b6000612d36612d31612d2c84612301565b612d11565b612301565b9050919050565b6000819050919050565b612d5083612d1b565b612d64612d5c82612d3d565b848454612cbf565b825550505050565b600090565b612d79612d6c565b612d84818484612d47565b505050565b5b81811015612da857612d9d600082612d71565b600181019050612d8a565b5050565b601f821115612ded57612dbe81612c8d565b612dc784612ca2565b81016020851015612dd6578190505b612dea612de285612ca2565b830182612d89565b50505b505050565b600082821c905092915050565b6000612e1060001984600802612df2565b1980831691505092915050565b6000612e298383612dff565b9150826002028217905092915050565b612e42826127f5565b67ffffffffffffffff811115612e5b57612e5a6121d6565b5b612e658254612c5c565b612e70828285612dac565b600060209050601f831160018114612ea35760008415612e91578287015190505b612e9b8582612e1d565b865550612f03565b601f198416612eb186612c8d565b60005b82811015612ed957848901518255600182019150602085019450602081019050612eb4565b86831015612ef65784890151612ef2601f891682612dff565b8355505b6001600288020188555050505b505050505050565b60006040820190508181036000830152612f25818561283b565b90508181036020830152612f39818461283b565b90509392505050565b7f416c7265616479207075626c6973686564000000000000000000000000000000600082015250565b6000612f78601183612800565b9150612f8382612f42565b602082019050919050565b60006020820190508181036000830152612fa781612f6b565b9050919050565b7f4e6f7420617574686f72697a6564202861676772656761746f72206f6e6c7929600082015250565b6000612fe4602083612800565b9150612fef82612fae565b602082019050919050565b6000602082019050818103600083015261301381612fd7565b9050919050565b7f4c656e677468206d69736d617463680000000000000000000000000000000000600082015250565b6000613050600f83612800565b915061305b8261301a565b602082019050919050565b6000602082019050818103600083015261307f81613043565b9050919050565b7f4e487b7100000000000000000000000000000000000000000000000000000000600052601160045260246000fd5b60006130c082612301565b91506130cb83612301565b92508282019050808211156130e3576130e2613086565b5b92915050565b7f4e487b7100000000000000000000000000000000000000000000000000000000600052603260045260246000fd5b82818337505050565b61312d60408383613118565b5050565b60006080820190506131466000830185613121565b6131536040830184613121565b9392505050565b600061316582612301565b91507fffffffffffffffffffffffffffffffffffffffffffffffffffffffffffffffff820361319757613196613086565b5b600182019050919050565b7f456c656374696f6e206e6f742061637469766500000000000000000000000000600082015250565b60006131d8601383612800565b91506131e3826131a2565b602082019050919050565b60006020820190508181036000830152613207816131cb565b9050919050565b7f446f75626c6520766f7465206465746563746564000000000000000000000000600082015250565b6000613244601483612800565b915061324f8261320e565b602082019050919050565b6000602082019050818103600083015261327381613237565b9050919050565b60006132868385612800565b9350613293838584612282565b61329c836121c5565b840190509392505050565b600060208201905081810360008301526132c281848661327a565b90509392505050565b7f4e6f742074727573746565000000000000000000000000000000000000000000600082015250565b6000613301600b83612800565b915061330c826132cb565b602082019050919050565b60006020820190508181036000830152613330816132f4565b9050919050565b7f416c726561647920696e697469616c697a656400000000000000000000000000600082015250565b600061336d601383612800565b915061337882613337565b602082019050919050565b6000602082019050818103600083015261339c81613360565b9050919050565b60006040820190506133b860008301856123d6565b81810360208301526133ca818461283b565b90509392505050565b7f4e6f742061637469766500000000000000000000000000000000000000000000600082015250565b6000613409600a83612800565b9150613414826133d3565b602082019050919050565b60006020820190508181036000830152613438816133fc565b9050919050565b600082905092915050565b60008190508160005260206000209050919050565b601f8211156134a0576134718161344a565b61347a84612ca2565b81016020851015613489578190505b61349d61349585612ca2565b830182612d89565b50505b505050565b6134af838361343f565b67ffffffffffffffff8111156134c8576134c76121d6565b5b6134d28254612c5c565b6134dd82828561345f565b6000601f83116001811461350c57600084156134fa578287013590505b6135048582612e1d565b86555061356c565b601f19841661351a8661344a565b60005b828110156135425784890135825560018201915060208501945060208101905061351d565b8683101561355f578489013561355b601f891682612dff565b8355505b6001600288020188555050505b50505050505050565b60006135818385612a65565b935061358e838584612282565b613597836121c5565b840190509392505050565b600060208201905081810360008301526135bd818486613575565b90509392505050565b7f50726f6f66206e6f742076657269666965640000000000000000000000000000600082015250565b60006135fc601283612800565b9150613607826135c6565b602082019050919050565b6000602082019050818103600083015261362b816135ef565b9050919050565b7f456d70747920445f706f696e7473000000000000000000000000000000000000600082015250565b6000613668600e83612800565b915061367382613632565b602082019050919050565b600060208201905081810360008301526136978161365b565b9050919050565b600082825260208201905092915050565b6000819050919050565b6136c560408383613118565b5050565b60006136d583836136b9565b60408301905092915050565b600082905092915050565b6000604082019050919050565b6000613705838561369e565b9350613710826136af565b8060005b858110156137495761372682846136e1565b61373088826136c9565b975061373b836136ec565b925050600181019050613714565b5085925050509392505050565b600060208201905081810360008301526137718184866136f9565b90509392505050565b7f696e76616c69642061676772656761746f720000000000000000000000000000600082015250565b60006137b0601283612800565b91506137bb8261377a565b602082019050919050565b600060208201905081810360008301526137df816137a3565b9050919050565b600060029050919050565b600081905092915050565b6000819050919050565b61380f81612301565b82525050565b60006138218383613806565b60208301905092915050565b6000602082019050919050565b613843816137e6565b61384d81846137f1565b9250613858826137fc565b8060005b838110156138895781516138708782613815565b965061387b8361382d565b92505060018101905061385c565b505050505050565b600060029050919050565b600081905092915050565b6000819050919050565b600081905092915050565b6138c5816137e6565b6138cf81846138b1565b92506138da826137fc565b8060005b8381101561390b5781516138f28782613815565b96506138fd8361382d565b9250506001810190506138de565b505050505050565b600061391f83836138bc565b60408301905092915050565b6000602082019050919050565b61394181613891565b61394b818461389c565b9250613956826138a7565b8060005b8381101561398757815161396e8782613913565b96506139798361392b565b92505060018101905061395a565b505050505050565b600060019050919050565b600081905092915050565b6000819050919050565b6000602082019050919050565b6139c58161398f565b6139cf818461399a565b92506139da826139a5565b8060005b83811015613a0b5781516139f28782613815565b96506139fd836139af565b9250506001810190506139de565b505050505050565b600061012082019050613a29600083018761383a565b613a366040830186613938565b613a4360c083018561383a565b613a516101008301846139bc565b95945050505050565b600081905092915050565b6000613a7082612a5a565b613a7a8185613a5a565b9350613a8a818560208601612811565b80840191505092915050565b6000613aa28284613a65565b915081905092915050565b613ab681612699565b8114613ac157600080fd5b50565b600081519050613ad381613aad565b92915050565b600060208284031215613aef57613aee6121b1565b5b6000613afd84828501613ac4565b9150509291505056fea264697066735822122039da23efd515dd0bc5ba294ebaed4ec6b5dc1c74187aacf10146b2095d2cbe6264736f6c63430008140033",
  "linkReferences": {},
  "deployedLinkReferences": {}
}